:100000000EC028C094C126C011C56BC123C022C038
:1000100021C020C01FC01EC01DC01CC01BC0112499
:100020001FBECFE5D2E0DEBFCDBF10E0A0E6B0E05E
:10003000E6E9FDE002C005900D92A836B107D9F7B8
:1000400010E0A8E6B0E001C01D92AA3BB107E1F7BD
:1000500009D29FC6D5CFE0917000F0E07091940076
:1000600060919500509196004091970030919800D2
:100070002091990090919A0080919B00A3E0EE0F4F
:10008000FF1FAA95E1F7EE58FF4F708361835283FB
:1000900043833483258396838783809170008F5FA9
:1000A0008093700080917000843011F41092700081
:1000B0001092940010929500109296001092970062
:1000C000109298001092990010929A0010929B0042
:1000D00080916F008093710010926F0008958823C3
:1000E00011F0C19A0895C1980895882319F0B8981D
:1000F000C09A02C0C098B89ABA98C29A95E89A95E0
:10010000F1F70000C298BA9A95E89A95F1F70000C5
:10011000882311F0C098B89A85E88A95F1F7000015
:100120000895B898C09ABA98C29A85E88A95F1F766
:10013000000086B3C298BA9A95E89A95F1F7000044
:100140008170089588B38A7F88BBBA98C29AB8989C
:10015000C09A85E88A95F1F70000089587B38A7FF1
:1001600087BB85E88A95F1F70000C098B89A85E8C2
:100170008A95F1F70000C298BA9A85E88A95F1F756
:1001800000000895BA98C29A85E88A95F1F70000B0
:10019000B898C09A85E88A95F1F7000008950F9302
:1001A0001F93082F18E0802F80789FDF000F1150D9
:1001B000D1F7B7DF1F910F9108951F93DF93CF936E
:1001C00000D00F92CDB7DEB7182F2B834A836983F7
:1001D000C5DF80916800880FE2DF812FE0DF698151
:1001E000862FDDDF4A81842FDADF2B81822FD7DF54
:1001F000C9DF0F900F900F90CF91DF911F9108955D
:100200000F931F93CF93DF9300E010E0C82FD0E04F
:1002100022C081E064DF8EE669E049E029E0CDDFBD
:100220008FE799EAA3E081509040A040E1F700C039
:10023000000080E054DF8EE660E040E020E0BDDFBB
:100240008FE799EAA3E081509040A040E1F700C019
:1002500000000F5F1F4F0C171D07DCF2DF91CF91DD
:100260001F910F910895382F962F242F88E6632F22
:10027000492FA3DF089572DF80916800880F8FDF18
:100280008FE68DDF7FDF8EE660E040E020E095DFE7
:1002900008951F93182F62DF80916800880F7FDF19
:1002A00086E67DDF812F7BDF6DDF1F910895FF9252
:1002B0000F931F93F82E08E010E0110F32DF182B78
:1002C0000150D9F7FF2011F080E001C081E00DDF7F
:1002D00085E88A95F1F70000812F1F910F91FF901B
:1002E00008951F920F920FB60F9211242F933F93F0
:1002F0004F935F936F937F938F939F93AF93BF932E
:10030000EF93FF9380916F008111A5DEFF91EF9134
:10031000BF91AF919F918F917F916F915F914F911D
:100320003F912F910F900FBE0F901F9018951F9225
:100330000F920FB60F9211240F932F933F934F9369
:100340005F936F937F938F939F93AF93BF93EF933D
:10035000FF9326B382B790E090939300809392002E
:1003600012BE80919200909193008E35910528F0F5
:1003700080916F00882309F063C024FF61C08091E1
:100380009200909193008F33910598F010926F0036
:10039000109294001092950010929600109297007F
:1003A000109298001092990010929A0010929B005F
:1003B00047C080919200909193008D319105A0F0FB
:1003C00020919400309195004091960050919700B3
:1003D000609198007091990080919A0090919B0093
:1003E00001E049D3216012C0209194003091950022
:1003F00040919600509197006091980070919900FB
:1004000080919A0090919B0001E035D32093940055
:100410003093950040939600509397006093980016
:100420007093990080939A0090939B0080916F0045
:100430008F5F80936F0080916F00803409F40BDE32
:10044000FF91EF91BF91AF919F918F917F916F91AC
:100450005F914F913F912F910F910F900FBE0F9091
:100460001F901895FF920F931F93DF93CF9300D0A7
:100470000F92CDB7DEB780E886BD16BC80B7876027
:1004800080BF88B7846088BF89B7846089BF78944B
:10049000B99A8FEF92E5A7E081509040A040E1F734
:1004A00000C0000080E090E0C8D38093630080E14A
:1004B00085BB8BB780628BBF89B7826089BF109282
:1004C0006F0084E083BFC49A12BE3CDED4DE83E0BA
:1004D00097DE81E08093690080916B0090916C00C1
:1004E000A0916D00B0916E0080549F41A040B0403B
:1004F0008093A4009093A500A093A600B093A700BA
:100500008E010F5F1F4F80916B0090916C00A09146
:100510006D00B0916E002091B0003091B10040911B
:10052000B2005091B300821B930BA40BB50B813B1F
:1005300024E0920720E0A20720E0B20710F010921A
:10054000A100809170008823D1F0809171008C30DF
:10055000B1F4709172006091730090917400809179
:1005600075002091760020917700209178002091ED
:100570007900AB01852F942F1092700037C08091C5
:100580007000882381F180917100803461F5809141
:100590007900853519F01092700025C080917000A7
:1005A000813009F5E8EAF0E088E090E0DC01AF583E
:1005B000BF4F2C9121930197C9F72091720081E0E0
:1005C00090E0FC01EE58FF4F3081231B01968830EC
:1005D0009105B9F710927000222329F481E090E090
:1005E000A0E0B0E003C080E090E0DC019C019093CB
:1005F000A3008093A200009709F436C181309105D1
:1006000009F062C081E06BDD109269009091AA0050
:100610009F3F71F48091AB008F3F51F46091A9002E
:100620006093630080E090E019D385E0E9DD1AC1B2
:100630008091A90020916300821719F0882309F0A6
:1006400011C19E3FB9F48091AB009091AC009983A9
:100650009091AD009A839091AE009B8390E063E00F
:1006600070E07AD2BC016F5F7F4FC80143E050E079
:10067000ECD2F8C08091AB009D3FB1F4F090AC009B
:1006800090E063E070E068D2BC016F5F7F4FC8010B
:1006900043E050E0C2D2FF2011F4B3E6FB2E8F2DD1
:1006A00069814A812B810EC090936800863621F4BF
:1006B0008091AC00EEDDD6C06091AC004091AD0001
:1006C0002091AE007ADDCEC08091B8009091B90043
:1006D0002817390709F04AC080916B0090916C008F
:1006E000A0916D00B0916E004091B0005091B100AA
:1006F0006091B2007091B300841B950BA60BB70BF1
:10070000883C9105A105B10500F580916B009091A1
:100710006C00A0916D00B0916E0040919C005091D2
:100720009D0060919E0070919F00841B950BA60B0D
:10073000B70B813B44E0940740E0A40740E0B407D6
:1007400038F181E08093A10023C080916B009091EB
:100750006C00A0916D00B0916E0080939C0090930E
:100760009D00A0939E00B0939F0012C080916B00EB
:1007700090916C00A0916D00B0916E0080939C00F0
:1007800090939D00A0939E00B0939F001092A100B3
:100790003093B9002093B80080916B0090916C0069
:1007A000A0916D00B0916E008093B0009093B10065
:1007B000A093B200B093B30081E091DC8091A200DD
:1007C0009091A300A4E080399A0739F0BCE0803909
:1007D0009B0719F0109269004EDD8091A200909164
:1007E000A3002AE080399207B1F18039910599F18F
:1007F00048E08039940779F1A4E080399A0759F1EB
:10080000BCE080399B0739F18031910521F128E066
:100810008031920701F144E080319407E1F0ACE0CF
:1008200080319A07C1F0B2E080319B07A1F02AE045
:100830008031920781F046E08031940761F0AEE0AC
:1008400080319A0741F0B1E080319B0721F029E027
:100850008031920719F4109269000DDD1092A30007
:100860001092A20080E03BDC80916B0090916C00C4
:10087000A0916D00B0916E002091A4003091A50070
:100880004091A6005091A700821B930BA40BB50BBF
:100890008093B4009093B500A093B600B093B700D6
:1008A000609169006130E9F4813A4FE0940740E0DB
:1008B000A40740E0B40708F44FC080916B0090910A
:1008C0006C00A0916D00B0916E008093A400909395
:1008D000A500A093A600B093A70090D180936A00D2
:1008E0003BC0623061F58D3221E0920720E0A20723
:1008F00020E0B207D8F080916B0090916C00A0913D
:100900006D00B0916E008093A4009093A500A09319
:10091000A600B093A70072D180936A0084E6B9DC88
:1009200080916A006FEF409162009DDC84E6B1DC4B
:1009300080916A006FEF4091620095DCE4CD6630F3
:1009400049F482E0A6DC2091620083E6622F422F08
:1009500034DCD9CD673011F482E0E9CF633069F53A
:100960008D3241E0940740E0A40740E0B40708F46A
:10097000CACD80916B0090916C00A0916D00B091F8
:100980006E008093A4009093A500A093A600B0935E
:10099000A70084E67EDC8091A100882349F680913F
:1009A000A0008B3018F44091620001C040E04093F9
:1009B000A00080916A006FEFC0CF643009F0A3CD32
:1009C0002115310541055105C9F484E662DC8091A9
:1009D0006A006FEF4091620046DC80916B0090915D
:1009E0006C00A0916D00B0916E008093A400909374
:1009F000A500A093A600B093A70085CD8D3221E07D
:100A0000920720E0A20720E0B20708F47CCD80E046
:100A100060E040E028DC109269001092A40010927F
:100A2000A5001092A6001092A7006DCD1F920F9204
:100A30000FB60F9211248F939F93AF93BF93809122
:100A40006B0090916C00A0916D00B0916E000296C9
:100A5000A11DB11D80936B0090936C00A0936D005D
:100A6000B0936E00BF91AF919F918F910F900FBE89
:100A70000F901F9018950F93DF93CF93CDB7DEB7EC
:100A800060970FB6F894DEBF0FBECDBF002309F408
:100A900059C029833A834B835C836D837E838F8324
:100AA0009887E0E2E01B29813A814B815C811E1628
:100AB000BCF019861A861B861C868E2F992787FD07
:100AC0009095909581959F4F04C0220F331F441F2E
:100AD000551F8A95D2F72D873E874F87588B2AC09E
:100AE000CA01B901002E04C0660F771F881F991F25
:100AF0000A94D2F769877A878B879C87DA01C901C4
:100B000004C0B695A79597958795EA95D2F72D815C
:100B10003E814F81588504C0220F331F441F551F4B
:100B20000A95D2F7822B932BA42BB52B8D879E870A
:100B3000AF87B88B29853A854B855C856D857E8529
:100B40008F85988960960FB6F894DEBF0FBECDBF33
:100B5000CF91DF910F9108955527002480FF02C0A7
:100B6000060E571F660F771F6115710521F09695C8
:100B70008795009799F7952F802D0895A0E0B0E014
:100B8000E3ECF5E0B5C0EC01688179818A819B8155
:100B9000611571058105910521F464E279ED8BE51C
:100BA00097E02DE133EF41E050E07FD079018A01F9
:100BB00027EA31E440E050E05FD05B016C01C801FE
:100BC000B7012CEE34EF4FEF5FEF56D09B01AC0135
:100BD0002A0D3B1D4C1D5D1D57FF04C021503040A8
:100BE00040405048288339834A835B833F77C9015B
:100BF000CDB7DEB7EAE098C0C1DF089584E690E0A3
:100C0000BDDF0895A0E0B0E080936400909365009C
:100C1000A0936600B09367000895DC01CB01FC014E
:100C2000E199FECF06C0FFBBEEBBE09A31960DB254
:100C30000D9241505040B8F70895E199FECF9FBB07
:100C40008EBBE09A99278DB30895DC01CB0102C0D9
:100C50002D9105D041505040D8F70895262FE199A5
:100C6000FECF1CBA9FBB8EBB2DBB0FB6F894E29A89
:100C7000E19A0FBE01960895FF27EE27BB27AA270A
:100C800060FF04C0A20FB31FE41FF51F220F331F24
:100C9000441F551F969587957795679589F7009717
:100CA000760771F7CF01BD01089597FB092E052640
:100CB0000ED057FD04D04BD00AD0001C38F450950C
:100CC0004095309521953F4F4F4F5F4F0895F6F770
:100CD00090958095709561957F4F8F4F9F4F0895A8
:100CE0002F923F924F925F926F927F928F929F923C
:100CF000AF92BF92CF92DF92EF92FF920F931F932A
:100D0000CF93DF93CDB7DEB7CA1BDB0B0FB6F894DA
:100D1000DEBF0FBECDBF09942A88398848885F841A
:100D20006E847D848C849B84AA84B984C884DF808B
:100D3000EE80FD800C811B81AA81B981CE0FD11D6F
:100D40000FB6F894DEBF0FBECDBFED010895A1E24E
:100D50001A2EAA1BBB1BFD010DC0AA1FBB1FEE1F35
:100D6000FF1FA217B307E407F50720F0A21BB30B80
:100D7000E40BF50B661F771F881F991F1A9469F7FC
:100D800060957095809590959B01AC01BD01CF0158
:060D90000895F894FFCF66
:080D96003200FF8001000000A3
:00000001FF
